:1000000009C00FC00DC00CC00BC00AC009C008C099
:1000100007C006C011241FBECFE9CDBF18D02EC027
:10002000EFCF1F920F920FB60F9211248F939F93D1
:10003000C49A8FE599E00197F1F700C00000C498D9
:100040009F918F910F900FBE0F901F90189515BE26
:100050001BBE17BA18BABC9A8BB780648BBF85B722
:10006000877E806185BF85B7806285BF80B78360EA
:1000700080BF8E7F80BF78948895FECFF894FFCFA5
:00000001FF
